{
  "_format": "hh-sol-artifact-1",
  "contractName": "SimpleStorageL1",
  "sourceName": "contracts/SimpleStorageL1.sol",
  "abi": [
    {
      "inputs": [
        {
          "internalType": "address",
          "name": "_addr",
          "type": "address"
        }
      ],
      "stateMutability": "nonpayable",
      "type": "constructor"
    },
    {
      "anonymous": false,
      "inputs": [
        {
          "indexed": false,
          "internalType": "string",
          "name": "message",
          "type": "string"
        },
        {
          "indexed": false,
          "internalType": "uint256",
          "name": "newVal",
          "type": "uint256"
        }
      ],
      "name": "Change",
      "type": "event"
    },
    {
      "anonymous": false,
      "inputs": [
        {
          "indexed": true,
          "internalType": "uint256",
          "name": "ticketId",
          "type": "uint256"
        }
      ],
      "name": "RetryableTicketCreated",
      "type": "event"
    },
    {
      "inputs": [],
      "name": "get",
      "outputs": [
        {
          "internalType": "uint256",
          "name": "",
          "type": "uint256"
        }
      ],
      "stateMutability": "view",
      "type": "function"
    },
    {
      "inputs": [
        {
          "internalType": "uint256",
          "name": "_storedData",
          "type": "uint256"
        },
        {
          "internalType": "uint256",
          "name": "maxSubmissionCost",
          "type": "uint256"
        },
        {
          "internalType": "uint256",
          "name": "maxGas",
          "type": "uint256"
        },
        {
          "internalType": "uint256",
          "name": "gasPriceBid",
          "type": "uint256"
        }
      ],
      "name": "sendTxToL2",
      "outputs": [
        {
          "internalType": "uint256",
          "name": "",
          "type": "uint256"
        }
      ],
      "stateMutability": "payable",
      "type": "function"
    },
    {
      "inputs": [
        {
          "internalType": "uint256",
          "name": "x",
          "type": "uint256"
        }
      ],
      "name": "set",
      "outputs": [],
      "stateMutability": "nonpayable",
      "type": "function"
    }
  ],
  "bytecode": "0x6080604052606460015534801561001557600080fd5b506040516107d63803806107d683398181016040528101906100379190610092565b806000806101000a81548173ffffffffffffffffffffffffffffffffffffffff021916908373ffffffffffffffffffffffffffffffffffffffff16021790555050610104565b60008151905061008c816100ed565b92915050565b6000602082840312156100a457600080fd5b60006100b28482850161007d565b91505092915050565b60006100c6826100cd565b9050919050565b600073ffffffffffffffffffffffffffffffffffffffff82169050919050565b6100f6816100bb565b811461010157600080fd5b50565b6106c3806101136000396000f3fe6080604052600436106100345760003560e01c806360fe47b1146100395780636d4ce63c14610062578063ecc7c71b1461008d575b600080fd5b34801561004557600080fd5b50610060600480360381019061005b9190610316565b6100bd565b005b34801561006e57600080fd5b50610077610142565b604051610084919061054a565b60405180910390f35b6100a760048036038101906100a29190610368565b61014c565b6040516100b4919061054a565b60405180910390f35b61c3508110610101576040517f08c379a00000000000000000000000000000000000000000000000000000000081526004016100f8906104fc565b60405180910390fd5b806001819055507fbb1cb5be1009ed69d54a8f3da20ed253be50c4dbbcade4f0a12114dedd9be5d781604051610137919061051c565b60405180910390a150565b6000600154905090565b60008085604051602401610160919061054a565b6040516020818303038152906040527f60fe47b1000000000000000000000000000000000000000000000000000000007bffffffffffffffffffffffffffffffffffffffffffffffffffffffff19166020820180517bffffffffffffffffffffffffffffffffffffffffffffffffffffffff83818316178352505050509050600073578bade599406a8fe3d24fd7f7211c0911f5b29e73ffffffffffffffffffffffffffffffffffffffff1663679b6ded3460008054906101000a900473ffffffffffffffffffffffffffffffffffffffff1660008a33338c8c8b6040518a63ffffffff1660e01b815260040161025e989796959493929190610477565b6020604051808303818588803b15801561027757600080fd5b505af115801561028b573d6000803e3d6000fd5b50505050506040513d601f19601f820116820180604052508101906102b0919061033f565b9050807fde92b5b7839f4a2c640f5e3bbb66d415458dadc57a487b0c7fa562ed7c9c896f60405160405180910390a28092505050949350505050565b6000813590506102fb81610676565b92915050565b60008151905061031081610676565b92915050565b60006020828403121561032857600080fd5b6000610336848285016102ec565b91505092915050565b60006020828403121561035157600080fd5b600061035f84828501610301565b91505092915050565b6000806000806080858703121561037e57600080fd5b600061038c878288016102ec565b945050602061039d878288016102ec565b93505060406103ae878288016102ec565b92505060606103bf878288016102ec565b91505092959194509250565b6103d481610592565b82525050565b60006103e582610565565b6103ef8185610570565b93506103ff8185602086016105e0565b61040881610613565b840191505092915050565b61041c816105ce565b82525050565b600061042f601983610581565b915061043a82610624565b602082019050919050565b6000610452600383610581565b915061045d8261064d565b602082019050919050565b610471816105c4565b82525050565b60006101008201905061048d600083018b6103cb565b61049a602083018a610413565b6104a76040830189610468565b6104b460608301886103cb565b6104c160808301876103cb565b6104ce60a0830186610468565b6104db60c0830185610468565b81810360e08301526104ed81846103da565b90509998505050505050505050565b6000602082019050818103600083015261051581610422565b9050919050565b6000604082019050818103600083015261053581610445565b90506105446020830184610468565b92915050565b600060208201905061055f6000830184610468565b92915050565b600081519050919050565b600082825260208201905092915050565b600082825260208201905092915050565b600061059d826105a4565b9050919050565b600073ffffffffffffffffffffffffffffffffffffffff82169050919050565b6000819050919050565b60006105d9826105c4565b9050919050565b60005b838110156105fe5780820151818401526020810190506105e3565b8381111561060d576000848401525b50505050565b6000601f19601f8301169050919050565b7f53686f756c64206265206c657373207468616e20353030303000000000000000600082015250565b7f7365740000000000000000000000000000000000000000000000000000000000600082015250565b61067f816105c4565b811461068a57600080fd5b5056fea2646970667358221220825a6e857073af931cef4e1bdfac7f3351593ced08e8e7e17efbe539576894b764736f6c63430008040033",
  "linkReferences": {},
  "deployedLinkReferences": {}
}