{
  "_format": "hh-sol-artifact-1",
  "contractName": "SimpleStorageL2",
  "sourceName": "contracts/SimpleStorageL2.sol",
  "abi": [
    {
      "inputs": [
        {
          "internalType": "address",
          "name": "_addr",
          "type": "address"
        }
      ],
      "stateMutability": "nonpayable",
      "type": "constructor"
    },
    {
      "anonymous": false,
      "inputs": [
        {
          "indexed": false,
          "internalType": "string",
          "name": "message",
          "type": "string"
        },
        {
          "indexed": false,
          "internalType": "uint256",
          "name": "newVal",
          "type": "uint256"
        }
      ],
      "name": "Change",
      "type": "event"
    },
    {
      "inputs": [],
      "name": "get",
      "outputs": [
        {
          "internalType": "uint256",
          "name": "",
          "type": "uint256"
        }
      ],
      "stateMutability": "view",
      "type": "function"
    },
    {
      "inputs": [],
      "name": "sendTxToL1",
      "outputs": [
        {
          "internalType": "uint256",
          "name": "",
          "type": "uint256"
        }
      ],
      "stateMutability": "payable",
      "type": "function"
    },
    {
      "inputs": [
        {
          "internalType": "uint256",
          "name": "x",
          "type": "uint256"
        }
      ],
      "name": "set",
      "outputs": [],
      "stateMutability": "nonpayable",
      "type": "function"
    }
  ],
  "bytecode": "0x6080604052606460015534801561001557600080fd5b5060405161069438038061069483398181016040528101906100379190610092565b806000806101000a81548173ffffffffffffffffffffffffffffffffffffffff021916908373ffffffffffffffffffffffffffffffffffffffff16021790555050610104565b60008151905061008c816100ed565b92915050565b6000602082840312156100a457600080fd5b60006100b28482850161007d565b91505092915050565b60006100c6826100cd565b9050919050565b600073ffffffffffffffffffffffffffffffffffffffff82169050919050565b6100f6816100bb565b811461010157600080fd5b50565b610581806101136000396000f3fe6080604052600436106100345760003560e01c806360fe47b1146100395780636d4ce63c14610062578063d2bea6ca1461008d575b600080fd5b34801561004557600080fd5b50610060600480360381019061005b91906102ad565b6100ab565b005b34801561006e57600080fd5b50610077610130565b604051610084919061041a565b60405180910390f35b61009561013a565b6040516100a2919061041a565b60405180910390f35b61c35081106100ef576040517f08c379a00000000000000000000000000000000000000000000000000000000081526004016100e6906103cc565b60405180910390fd5b806001819055507fbb1cb5be1009ed69d54a8f3da20ed253be50c4dbbcade4f0a12114dedd9be5d78160405161012591906103ec565b60405180910390a150565b6000600154905090565b600080600154604051602401610150919061041a565b6040516020818303038152906040527f60fe47b1000000000000000000000000000000000000000000000000000000007bffffffffffffffffffffffffffffffffffffffffffffffffffffffff19166020820180517bffffffffffffffffffffffffffffffffffffffffffffffffffffffff83818316178352505050509050606473ffffffffffffffffffffffffffffffffffffffff1663928c169a60008054906101000a900473ffffffffffffffffffffffffffffffffffffffff16836040518363ffffffff1660e01b815260040161022b92919061039c565b602060405180830381600087803b15801561024557600080fd5b505af1158015610259573d6000803e3d6000fd5b505050506040513d601f19601f8201168201806040525081019061027d91906102d6565b91505090565b60008135905061029281610534565b92915050565b6000815190506102a781610534565b92915050565b6000602082840312156102bf57600080fd5b60006102cd84828501610283565b91505092915050565b6000602082840312156102e857600080fd5b60006102f684828501610298565b91505092915050565b61030881610462565b82525050565b600061031982610435565b6103238185610440565b935061033381856020860161049e565b61033c816104d1565b840191505092915050565b6000610354601983610451565b915061035f826104e2565b602082019050919050565b6000610377600383610451565b91506103828261050b565b602082019050919050565b61039681610494565b82525050565b60006040820190506103b160008301856102ff565b81810360208301526103c3818461030e565b90509392505050565b600060208201905081810360008301526103e581610347565b9050919050565b600060408201905081810360008301526104058161036a565b9050610414602083018461038d565b92915050565b600060208201905061042f600083018461038d565b92915050565b600081519050919050565b600082825260208201905092915050565b600082825260208201905092915050565b600061046d82610474565b9050919050565b600073ffffffffffffffffffffffffffffffffffffffff82169050919050565b6000819050919050565b60005b838110156104bc5780820151818401526020810190506104a1565b838111156104cb576000848401525b50505050565b6000601f19601f8301169050919050565b7f53686f756c64206265206c657373207468616e20353030303000000000000000600082015250565b7f7365740000000000000000000000000000000000000000000000000000000000600082015250565b61053d81610494565b811461054857600080fd5b5056fea2646970667358221220a5ebd64eb5fa147106d240dadc992c5270c67bffba3402a7604c5f92ae7ad01864736f6c63430008040033",
  "linkReferences": {},
  "deployedLinkReferences": {}
}